:020000040800F2
:1000000098060020E5010008ED010008EF01000856
:10001000F1010008F3010008F501000800000000EC
:10002000000000000000000000000000F7010008D0
:10003000F901000800000000FB010008FD010008B4
:10004000FF010008FF010008FF010008FF01000890
:10005000FF010008FF010008FF010008FF01000880
:10006000FF010008FF010008FF010008FF01000870
:10007000FF010008FF010008FF010008FF01000860
:10008000FF010008FF010008FF010008FF01000850
:10009000FF010008FF010008FF010008FF01000840
:1000A000FF010008FF010008FF010008FF01000830
:1000B000FF010008FF010008FF010008FF01000820
:1000C000FF010008FF010008FF010008FF01000810
:1000D000FF010008FF010008FF010008FF01000800
:1000E000FF010008FF010008FF010008FF010008F0
:1000F000FF010008FF010008FF010008FF010008E0
:10010000FF010008FF010008FF010008FF010008CF
:10011000FF010008FF010008FF010008FF010008BF
:10012000FF010008FF010008FF010008FF010008AF
:1001300000F002F800F047F80AA090E8000C8244B2
:100140008344AAF10107DA4501D100F03CF8AFF28F
:10015000090EBAE80F0013F0010F18BFFB1A43F0A5
:10016000010318470C2400002C240000103A24BF7F
:1001700078C878C1FAD8520724BF30C830C144BF0C
:1001800004680C607047000000230024002500264E
:10019000103A28BF78C1FBD8520728BF30C148BFEA
:1001A0000B607047662902F09681002070471FB5EA
:1001B00000F022FB04000020002101F08BFEE06033
:1001C0001FBD10B510BD00F013FC1146FFF7EFFF87
:1001D00001F0CEFD00F031FC03B4FFF7F2FF03BCE9
:1001E00000F072FC0948804709480047FEE7FEE737
:1001F000FEE7FEE7FEE7FEE7FEE7FEE7FEE7FEE7D7
:1002000004480549054A064B70470000A919000833
:100210003101000898000020980600209802002074
:10022000980200200FB41CB5084B06AA7B4469460F
:100230000090059800F0C7FA04460020694600F0D7
:10024000D5FA20461CBC5DF814FB0000BD0500007B
:100250002DE9F0474FF0000A89460446C0F820A077
:100260002046E1688847002876D0252806D0D4E9C2
:1002700001219047206A401C2062F1E7E168204696
:1002800000258847C4F81CA006460027C4F818A01B
:100290002A2E09D0304601F0CBFB38B304EB870897
:1002A000303EC8F8186019E059F8041B204604EBEA
:1002B00087029161E1688847012F064618D1E069FD
:1002C000002820DA25F020051DE0D8F8180000EB02
:1002D000800006EB40003038C8F818002046E1687E
:1002E0008847064601F0A4FB0028EED1012F0AD072
:1002F0002E2E08D12046E16888477F1C0646022F33
:1003000045F02005C4DBA069002803DA404245F02F
:100310000105A061E80701D025F01005B6B1A6F1EE
:100320004100192802D8203645F400654A46314676
:10033000204625604D46FFF735FF58B1012806D00D
:10034000ED1D25F0070000F1080989E704E005F13B
:10035000040985E730468AE7206ABDE8F08710B5D2
:10036000431C02E010F8011B71B18107FAD14FF074
:10037000013202C88C1A8C4314EAC211F9D0C01A97
:100380000A0603D0C01E10BDC01A10BD0A0401D059
:10039000801E10BD0902FCD0401E10BD7047704782
:1003A000704770472DE9FF4F0C461E464FF0FF3750
:1003B0008BB0D2E90001DDF860800A908A46C1F373
:1003C0000A5505B93D46002108464FF00000BAF134
:1003D000000F00F4400005DA00EB80004FF440010C
:1003E00001EA50004FEA9059B9F1010F00DDB9461A
:1003F0000A9850EA4A000ED044F61050A5F2FF3594
:1004000045432F14B8F1000F1ED07542291E1EDD82
:10041000C9F100021CE0B8F1010F4FF0000001D05B
:10042000302103E0F24305E02154401CB042FBDBE5
:1004300030460022002121540B99C1F80880C1E9FF
:1004400000200FB0BDE8F08FBD1B6D1CDEE74A46F3
:1004500000DA694206A800F059FA06AB93E80700F3
:1004600003AB83E8070050460A9900F034FB8DE89F
:100470000700A0F500501F3800900398002D09DDFB
:1004800042F21F014A46084403A90390684600F05F
:1004900093FD08E0A0F500504A461F3803A90390D9
:1004A000684600F09DFD8DE807000004000C03D0B5
:1004B0004FF0FF30410800E01046B8F1000F03D0C4
:1004C0000022009215461EE0751E05D400F098F932
:1004D000303262556D1EF9D5B3460122084302D071
:1004E00000227F1C04E02078302801D100227F1EEA
:1004F000002A099786D01DE0112D07DA00F080F957
:10050000303262556D1C50EA0102F5D1084302D029
:100510000098C8B10EE00021681E05E0235C625C13
:1005200063542254401E491C8142F7DBAB46A81B92
:10053000401E0990002004F80B000B98099AC0F89F
:100540000880C0E9002B7CE711264FF0000859E72E
:100550002DE9F04F88460446D21D22F0070191B0E4
:10056000D1E90001CDE90A0101F04EFA02460B98EB
:10057000C00F01D02D2007E02068810701D52B2076
:1005800002E0202101EAC000032A099001D0072AD5
:1005900005DB03464146204600F078F90BE1207860
:1005A000800601D5E06900E00620B8F1650F8146BC
:1005B00006D0B8F1660F18D0B8F1670F70D131E0EE
:1005C0000020B9F1110F009001DB112301E009F1C6
:1005D00001030AAA01A90CA8FFF7E4FEDDE90C70EB
:1005E000002609F10105834647E001204B460090B3
:1005F0004FF000470AAA01A90CA8FFF7D3FEDDE9D6
:100600000DB00C995D46002610B909F101000D18D6
:10061000B9EB050003D4C0F1FF3609F10105A5EBE4
:1006200009002BE0B9F1010F01DA4FF001090020B8
:10063000B9F1110F0090484601DD112300E0034697
:100640000AAA01A90CA8FFF7ADFEDDE90C704D4622
:1006500000268346207800070AD4AB4500DA5D46C1
:1006600001A8012D04DD411911F8011C302907D022
:100670004F4502DA17F1040F04DA012082460FE039
:100680006D1EEEE7002F02DCED1B3E4403E0781CFC
:10069000A84200DD7D1CB81B00F1010A4FF00047A5
:1006A0002078000703D4AA4501DB4FF0FF3A002170
:1006B000B7F1004F0DF143088DF8431024D002200C
:1006C0002B23002F01DA7F422D230A21021EA0F1E5
:1006D000010000DC5FB197FBF1FC97FBF1F201FB3D
:1006E0001C7C17460CF1300C08F801CDEEE7A8F1A0
:1006F000010003702188090501D5452100E065212D
:10070000A0F1010800F8011C09980FA9A1EB080746
:10071000FF1D00B10120411901EBEA70A1693844C5
:10072000081A401EA0612078C00602D42046AFF30C
:100730000080099828B1D4E901219047206A401C23
:1007400020622078C00622D52046AFF300801EE04C
:10075000002E04DBB34502DD01A8805D00E03020FF
:10076000D4E901219047206A401C2062761CAAF13E
:1007700001005FEA000A0AD100F03EF8C068016893
:10078000405CD4E901219047206A401C2062281E69
:10079000A5F10105DCDC07E0D4E9012118F8010B23
:1007A0009047206A401C2062381EA7F10107F3DC45
:1007B0002046AFF30080032011B043E601694A1CD4
:1007C00002610878704700B58FB0CDE90131002192
:1007D000059105497944CDE9031011466846FFF7B4
:1007E00037FD0FB000BD0000E5FFFFFF0A6802F80B
:1007F000010B0A6070470000004870475800002055
:1008000030B5B0F10A024FEA900E71F100034EEAE2
:10081000817EB0EB0E0061EB91014FEA101E4EEAB3
:10082000017E10EB0E0041EB11114FEA102E4EEA43
:10083000016E10EB0E0041EB11214FEA104E4EEA13
:10084000014E10EB0E0041EB1141401841F1000147
:100850004FEAD00040EA41704FEAD10110EB800529
:100860004FEA810444EA907444EB01046D1944EBAF
:100870000404521BA3414FF0000348BF0A3200D5C5
:1008800030BD401C41F1000130BD00002DE9F041B8
:100890001F46044603260168072A01F4006004DBB2
:1008A00008B116A505E016A503E008B115A500E0FE
:1008B00015A521F010002060A069C01EA0610FB135
:1008C000401EA0612046AFF300804FB1D4E9012162
:1008D00038469047206A401C2062C01C206206E017
:1008E000206AFAE7D4E9012115F8010B9047761E3A
:1008F000F8D22046AFF30080BDE8F0814E414E00B3
:100900006E616E00494E4600696E66002DE9F04743
:10091000814616468AB0334878440DC88DE80D00EC
:1009200030487844801C03AC0DC884E80D0041F6C3
:100930009B300844372190FBF1F290FBF1F5A5F1D3
:10094000800501FB12041B3C02D56442012000E03B
:100950000020DFF890A080460027FA44AAF1BE0AE2
:100960000DE0E00709D03246684607EB47010AEB85
:10097000810100F035FB8DE8070064107F1C002C1E
:10098000EFD1184F7F44AC3F18E0E80714D007EBD5
:1009900004100DF1180A90E80E008AE80E00C068F5
:1009A000F04201D198190890324606A903A800F038
:1009B00017FB03AB83E807006D10641C002DE4D126
:1009C00032466946B8F1000F03A802D000F0F4FAED
:1009D00001E000F005FBC9E90001C9F808200AB0F0
:1009E000BDE8F0873C1C000000487047380000203C
:1009F0007546FFF7F9FFAE4605006946534620F0FD
:100A00000700854618B020B5FFF7FAFBBDE8204087
:100A10004FF000064FF000074FF000084FF0000BBA
:100A200021F00701AC46ACE8C009ACE8C009ACE86D
:100A3000C009ACE8C0098D4670470446AFF300809A
:100A40002046FFF7C9FB00004FF0013C50F8042B93
:100A500051F8043B9A4221D1A2EB0C03934313EAD1
:100A6000CC1317D150F8042B51F8043B9A4215D1FE
:100A7000A2EB0C03934313EACC130BD150F8042BD5
:100A800051F8043B9A4209D1A2EB0C03934313EAB9
:100A9000CC13DBD04FF00000704700BFD01A01BA72
:100AA000B1FA81F101F0180122FA01F0CB40C1F155
:100AB0002001DBB2C0B2C01A2CFA01F3D11A914363
:100AC00011EAC311E6D1704701491820ABBEFEE719
:100AD0002600020070475FEA400C08BF91F0000F4B
:100AE0004FEA8C234FEAC12243EA51514FEA1C508E
:100AF00018BF00F5F0404FEA300018BF41F0004148
:100B00005FEA6C5C00F02980BCF1FF3F08BF40F059
:100B100080407047130C06BF12044FF0100C4FF0CA
:100B2000000C130E04BF12020CF1080C130F04BFCB
:100B300012010CF1040C930F04BF92000CF1020C93
:100B4000D30F04BF52000CF1010C11464FF000020C
:100B5000A0F11F00A0EB0C00704711F0004F08BF80
:100B6000704731F000413FF4D5AF0B0C06BF0904CC
:100B70004FF0100C4FF0000C0B0E04BF09020CF1EB
:100B8000080C0B0F04BF09010CF1040C8B0F04BF00
:100B900089000CF1020CCB0F04BF49000CF1010CD1
:100BA000CCF12003A0EB0C0022FA03F302FA0CF2C2
:100BB00041EA030100F10100704720F07F4C80EA18
:100BC000030023F07F47ACEB070303F57C5300F0F1
:100BD000004003F1FF032DE980494FEA154B09B4AA
:100BE0004FEA144325EA0B4E24EA03480FF2042689
:100BF00006EB132749083E785FEA320203FB0667DB
:100C0000C7F5000707FB06F64FEA54374FEAD6460A
:100C100006F1020607FB066CCCF1005C4FEA1C47AC
:100C20002CEA074C07FB06F40CFB06F504EB154613
:100C30004FEA961634BF00204FF000404FEAD137FC
:100C400006FB07FC4FEA1C4C0CFB0BF7D21B03FB0B
:100C50000CF761EB07010CFB0EF7B0EB074072EBF2
:100C600017420CFB08F734BFA2EB0742B2EB074276
:100C700061EB17414FEA0C444FEA910706FB07FC72
:100C80004FEA1C4C0CFB0BF7B0EBC74072EB573232
:100C900003FB0CF734BFA2EBC742B2EBC74261EBD8
:100CA00057310CFB0EF7B0EBC70072EB57720CFB21
:100CB00008F734BFA2EBC702B2EBC70261EB577172
:100CC000039F4FEA816141EA921104EBCC044FEAA1
:100CD000D1374FEA826206FB07FC42EA90124FEAE4
:100CE00080604FEA1C4C0CFB0BF7D21B03FB0CF78C
:100CF00061EB07010CFB0EF7B0EB074072EB1742FC
:100D00000CFB08F734BFA2EB0742B2EB074261EBE2
:100D100017414FEA8C554FEA910704EB9C2406FBE0
:100D200007FC4FEA1C4C0CFB0BF7B0EBC74072EB17
:100D3000573203FB0CF734BFA2EBC742B2EBC742FA
:100D400061EB57310CFB0EF7B0EBC70072EB57723B
:100D50000CFB08F734BFA2EBC702B2EBC70261EB92
:100D6000577115EB4C254FEA816141EA92114FEA28
:100D700082624FEAD13742EA901206FB07FC44F147
:100D800000044FEA80604FEA1C4C0CFB0BF7D21BAF
:100D900003FB0CF761EB07010CFB0EF7B0EB074010
:100DA00072EB17420CFB08F734BFA2EB0742B2EB21
:100DB000074261EB174115EB1C154FEA813141EAFF
:100DC00092414FEA823242EA90424FEA80304FEA43
:100DD0000C7644F1000448EA03434EEA0B484FF016
:100DE000000EB2EB080C71EB030724BF62463946D4
:100DF0004EEB0E0E4FF0000B0018524149414BEBE9
:100E00000B0BB2EB080C71EB03077BF1000B24BF5B
:100E1000624639464EEB0E0E4FF0000B0018524161
:100E200049414BEB0B0BB2EB080C71EB03077BF169
:100E3000000B24BF624639464EEB0E0E51EA020704
:100E400018BF46F0010616EB0E7655F1000254F17C
:100E5000000103D5BDE88901BDE80088BDE889012E
:100E6000BDE80048B619524141EB0101A3F101036D
:100E7000704780807F7E7D7C7B7A79787776767507
:100E80007473727171706F6E6E6D6C6C6B6A6A697F
:100E90006868676666656464636362616160605F19
:100EA0005F5E5E5D5D5C5C5B5B5A5A595958585792
:100EB00057565655555554545353525252515150FA
:100EC00050504F4F4F4E4E4D4D4D4C4C4C4B4B4B4D
:100ED0004A4A4A4949494848484747474746464693
:100EE00045454544444444434343434242424241CE
:100EF0004141002B26D4770021D01CB54FEA37079B
:100F000003B44FF010004FF010014FF000000FBC81
:100F1000BDE810400BF1010BBBF1010F08BF5FEA08
:100F2000170722BF12F1010211F101014FF0004138
:100F300043F1000300F0004043EA00007047F9D39A
:100F40005708DAE746EA064613F1400F4FEA16461D
:100F50001FDD13F1200FDFBF16430A4600212033A7
:100F60005B42C8D0C3F1200746EA064602FA07F7FB
:100F70004FEA164646EA0706C3F1200722FA03F2B3
:100F800001FA07F721FA03F14FF0000342EA0702E2
:100F9000B1E746EA020646EA06464FEA164646EA40
:100FA0000106BCBF46EA0646360C4FF000034FF080
:100FB00000024FF000019EE72DE9C048934630B48F
:100FC00091E8380007C831EA400C48BF34EA430CC6
:100FD00003D5FFF7F2FDFFF78CFFF0BCBDE80088FA
:100FE0002DE9C048934630B491E8380007C810F0A6
:100FF000804F08BF13F0804F03D100F005F8FFF7D2
:1010000078FFF0BCBDE8008820F07F4780EA03004D
:1010100023F07F4C07EB0C03A3F57C5300F000405A
:10102000A3F1FE0392F0000F00F0B38095F0000FE3
:1010300000F077802DE901494FEA11404FEA14464C
:1010400021EA004800FB06FC24EA064708FB06F6F6
:1010500007FB08F800FB07F718EB06484CEB164CAB
:101060004FEA124B18EB07484FEA15464CEB174076
:1010700022EA0B4E0BFB06FC25EA06470EFB06F6A2
:1010800007FB0EFE0BFB07F71EEB064E4CEB164C58
:101090004FF000061EEB074E4CEB174B18EB0B08FE
:1010A00040F1000018EB0E0B58EB000840F1000077
:1010B0008F1A4FF000013CBFC943661B14BFB5EB4C
:1010C000040C00213CBFC943F61B4FEA17444EEA0B
:1010D0008E0E27EA04454FEA1C4704FB07622CEA00
:1010E000074C05FB07F70CFB05F604FB0CFC16EBA5
:1010F000074642EB174216EB0C4642EB1C421BEB39
:10110000060658EB0202414146EA9E0601D5BDE8BB
:101110000189B619524141EB0101A3F10103BDE878
:1011200001894FEA14454FEA114724EA054621EAAE
:10113000074C05FB07F406FB07F70CFB06F105FB64
:101140000CFC11EB074144EB17444FEA124711EB3B
:101150000C4144EB1C4422EA074C05FB07F206FB5A
:1011600007F70CFB06F605FB0CFC16EB074642EBFB
:10117000174216EB0C4642EB1C456A1854F100016D
:1011800048BF7047B619524141EB0101A3F1010379
:10119000704795F0000F37D04FEA11424FEA1447DD
:1011A00021EA024624EA074C02FB07F106FB07F797
:1011B0000CFB06F402FB0CFC14EB074441EB17415B
:1011C0004FEA154714EB0C4441EB1C4125EA074C50
:1011D00002FB07F506FB07F70CFB06F602FB0CFC0F
:1011E00016EB074645EB174516EB0C4645EB1C4244
:1011F000121951F1000148BF7047B619524141EB35
:101200000101A3F1010370474FEA14454FEA11476A
:1012100024EA054621EA074C05FB07F106FB07F720
:101220000CFB06F24FF0000605FB0CFC12EB07422C
:1012300041EB174112EB0C4251EB1C4148BF704788
:10124000921841EB0101A3F10103704700B5034679
:1012500003E04FF47A7000F005F81800A3F10103E1
:10126000F7D100BD00EBC001C9004FF0E022516191
:10127000002191610521116100BF4FF0E021096952
:1012800001F480310029F8D004214FF0E0221161EF
:10129000704700001CB50121124800F0B5F801218B
:1012A000042000F0C1FA0121082000F0BDFAE0207E
:1012B000ADF8040010208DF8070003208DF806001B
:1012C00001A9094800F014F8FF20ADF80000102033
:1012D0008DF8030003208DF802006946034800F0F2
:1012E00007F81CBD00023000000C0140000801405E
:1012F0002DE9F041024600250026002000230024AD
:10130000002791F803C00CF00F0591F803C00CF012
:10131000100CBCF1000F03D091F802C04CEA050597
:1013200091F800C0BCF1000F31D0146800202BE010
:101330004FF0010C0CFA00F3B1F800C00CEA030600
:101340009E4220D183004FF00F0C0CFA03F7BC43F0
:1013500005FA03FC4CEA040491F803C0BCF1280F21
:1013600006D14FF0010C0CFA00FCC2F814C00AE0E0
:1013700091F803C0BCF1480F05D14FF0010C0CFAF5
:1013800000FCC2F810C0401C0828D1D31460B1F88A
:1013900000C0BCF1FF0F34DD546800202EE000F1E6
:1013A000080C4FF0010808FA0CF3B1F800C00CEA81
:1013B00003069E4221D183004FF00F0C0CFA03F775
:1013C000BC4305FA03FC4CEA040491F803C0BCF1E9
:1013D000280F05D100F1080C08FA0CF8C2F81480A7
:1013E00091F803C0BCF1480F07D100F1080C4FF091
:1013F000010808FA0CF8C2F81080401C0828CED367
:101400005460BDE8F0810000F0B50A4600230024D6
:101410000021002500F00046B6F1004F02D11D4E1C
:10142000F16901E01B4E7168C0F3034583B200F41B
:101430004016B6F5401F08D121F07061154E766850
:1014400026F07066134F7E6012E000F48016B6F549
:10145000801F06D1032606FA05F4A14341F070610E
:1014600006E0460D360103FA06F6B14341F070611D
:1014700022B1460D360103FA06F6314300F000466C
:10148000B6F1004F02D1034EF16101E0014E7160EF
:10149000F0BD0000000001400146886880B270473E
:1014A0000246002093680B400BB1012000E00020B1
:1014B00070474161704701617047C160704700002B
:1014C00008B50121102000F0AFF94FF47040ADF8DD
:1014D000000001208DF8020048208DF803006946C5
:1014E0000848FFF705FF4FF47060ADF800001020CA
:1014F0008DF8030003208DF8020069460148FFF7CC
:10150000F7FE08BD0010014070B511254FF47E4173
:101510007D48FFF7D2FF7C48FFF7BEFF044604F486
:101520007044B4F5704F30D01420FFF78FFE76482A
:10153000FFF7B2FF044604F47044B4F5704F24D0B2
:101540007148FFF7A9FF00F47F44B4F5FC4F0ED0BB
:10155000B4F53E4F09D0B4F55E4F04D0B4F56E4FEC
:1015600007D10B2506E00A2504E0002502E00F253F
:1015700000E000BF00BF05E06348FFF78DFF0446B1
:1015800004F47044B4F5704FF6D14FF47D415E48D9
:10159000FFF793FF5C48FFF77FFF044604F47044B5
:1015A000B4F5704F30D01420FFF750FE5648FFF7C7
:1015B00073FF044604F47044B4F5704F24D05248CD
:1015C000FFF76AFF00F47F44B4F5FA4F0ED0B4F58C
:1015D0003D4F09D0B4F55D4F04D0B4F56D4F07D140
:1015E0000C2506E0092504E0082502E0072500E0B7
:1015F00000BF00BF05E04448FFF74EFF044604F477
:101600007044B4F5704FF6D14FF47B413E48FFF77C
:1016100054FF3D48FFF740FF044604F47044B4F51E
:10162000704F30D01420FFF711FE3748FFF734FF1A
:10163000044604F47044B4F5704F24D03248FFF7E8
:101640002BFF00F47F44B4F5F64F0ED0B4F53B4FBA
:1016500009D0B4F55B4F04D0B4F56B4F07D10D251D
:1016600006E0062504E0052502E0042500E000BFB1
:1016700000BF05E02448FFF70FFF044604F4704460
:10168000B4F5704FF6D14FF477411F48FFF715FFBF
:101690001D48FFF701FF044604F47044B4F5704F91
:1016A00030D01420FFF7D2FD1748FFF7F5FE0446AF
:1016B00004F47044B4F5704F24D01348FFF7ECFEE7
:1016C00000F47F44B4F5EE4F0ED0B4F5374F09D097
:1016D000B4F5574F04D0B4F5674F07D10E2506E097
:1016E000032504E0022502E0012500E000BF00BF61
:1016F00005E00548FFF7D0FE044604F47044B4F555
:10170000704FF6D1284670BD0010014010B5FFF7AC
:10171000C1FD00210B48FFF7D0FE00210A48FFF76A
:10172000CCFE4FF4FA70FFF79DFD382000F05AF818
:101730000C2000F057F8062000F054F8012000F0CB
:1017400051F810BD00080140000C014070B505467D
:101750000C46012D06D1611EC9B241F0800000F097
:1017600041F806E004F13F01C9B241F0800000F009
:1017700039F870BD2DE9F04106460F4614460025A4
:1017800039463046FFF7E2FF00BF04E0605D00F03D
:1017900007F8681CC5B2605D0028F7D1BDE8F0818C
:1017A00010B5044600F050F820210C48FFF783FEE6
:1017B00040210A48FFF77DFE80210848FFF779FEA7
:1017C00021460748FFF779FE80210448FFF773FEA2
:1017D00080210248FFF76DFE10BD0000000C0140A3
:1017E0000008014010B5044600F02EF820210C48F6
:1017F000FFF75FFE40210A48FFF75BFE80210848A3
:10180000FFF757FE21460748FFF757FE802104489F
:10181000FFF751FE80210248FFF74BFE10BD00008C
:10182000000C01400008014029B1064A92690243B8
:10183000044B9A6104E0034A92698243014B9A6126
:10184000704700000010024008B5FF211A48FFF75A
:1018500034FE8020ADF8000004208DF80300032042
:101860008DF8020069461448FFF742FD2021134815
:10187000FFF71FFE40211148FFF71DFE80210F4892
:10188000FFF719FE00BF80210B48FFF709FE002873
:10189000F9D180210948FFF70CFEFF20ADF80000C8
:1018A00010208DF8030003208DF8020069460248DD
:1018B000FFF71EFD08BD000000080140000C0140BC
:1018C00010B500F001F810BD0CB50020019000909B
:1018D0003348006840F480303149086000BF304828
:1018E000006800F4003000900198401C01900098BE
:1018F00018B90198B0F5A06FF1D12948006800F43B
:10190000003010B10120009001E00020009000980C
:10191000012843D12348006840F0100021490860A5
:101920000846006820F0030008600846006840F0A0
:10193000020008601A484068194948600846406833
:1019400048600846406840F4806048600846406847
:1019500020F47C1048600846406840F4E810486075
:101960000846006840F08070086000BF0C480068BE
:1019700000F000700028F9D00948406820F003000A
:10198000074948600846406840F00200486000BFD0
:101990000348406800F00C000828F9D10CBD000095
:1019A000001002400020024010B51348006840F0CB
:1019B00001001149086008464068104908400E4976
:1019C0004860084600680E4908400B490860084610
:1019D000006820F4802008600846406820F4FE007B
:1019E00048604FF41F008860FFF76AFF4FF0006007
:1019F0000449086010BD0000001002400000FFF81C
:101A0000FFFFF6FE08ED00E0490050EAC12018BFD4
:101A100004204A0D18BF40F0010040F2FF72B2EB03
:101A2000515F08BF40F00200012808BF0520704741
:101A300030380A2801D2012070470020704700008A
:101A400070B50446A048006848B9A048006801285D
:101A500005D19F48006800F0A9FB9E4908609E4898
:101A6000005D2D2840D004DC2A2822D02B280DD15F
:101A700055E02F2802D03D28F9D16BE02F20FFF749
:101A80008FFE00F07DF99548006800B91AE193488F
:101A9000006830B192480068012802D000F070F967
:101AA00006E08F480068012802D10A20FFF7C8FF2E
:101AB00008E12A20FFF774FE00F062F98748006809
:101AC00000B9FFE08548006830B18548006801280A
:101AD00002D000F055F906E081480068012802D1E3
:101AE0000A20FFF7ADFFEDE02D20FFF759FE00F0D3
:101AF00047F97A48006800B9E4E07848006830B1F6
:101B000077480068012802D000F03AF906E07448EE
:101B10000068012802D10A20FFF792FFD2E02B20B3
:101B2000FFF73EFE00F02CF96C48006800B9C9E0F0
:101B30006A48006830B16A480068012802D000F0A5
:101B40001FF906E066480068012802D10A20FFF765
:101B500077FFB7E05F480068002802DC5D48006856
:101B6000A0B96048006888B95A48006800F05AFB7C
:101B70005D49086059480068012803D0574800684B
:101B8000022802D10020584908608AE051480068C4
:101B900080BB5448006868B35048006850B34F4851
:101BA0000068032805D0042813D000204E4908609F
:101BB0001FE04C48006800F035FB054645480068CA
:101BC00000F030FB0646294600F010FC464908604C
:101BD0000FE04448006800F025FB05463D480068DA
:101BE00000F020FB0646294600F0BCF93E4908609B
:101BF00000BF56E0FFE73748006880B33948006807
:101C000068B33648006850B334480068012806D0ED
:101C1000022814D0032823D0042841D130E03148D1
:101C2000006800F0FFFA05462A48006800F0FAFA5A
:101C30000646294600F0F8F92B49086030E02948AB
:101C4000006800F0EFFA05462248006800F0EAFA62
:101C50000646294600F0FEFA2349086020E020E00D
:101C60002048006800F0DEFA05461A48006800F0D7
:101C7000D9FA0646294600F0B9FB1B4908600FE077
:101C80001848006800F0CEFA05461248006800F0D7
:101C9000C9FA0646294600F065F91349086000BFF5
:101CA00000BF114800680A49086001200F49086018
:101CB000002005490860054908600B48006800F0ED
:101CC00017F800BF00BF70BD3000002034000020B6
:101CD0001400002018000020000000202000002038
:101CE000240000201C000020280000202C000020E0
:101CF0002DE9FF410546C020FFF774FD3D20FFF7A9
:101D00004FFD284600F002F9064632460B4611A167
:101D10006846FEF787FA002404E01DF80400FFF788
:101D20003FFD641C6846FEF71AFBA042F5D88020F0
:101D3000FFF758FD0021094A0846116000F052FAE9
:101D400007490860074908600749086007490860B3
:101D5000BDE8FF81252E326600000000280000202B
:101D600024000020200000201C000020180000207B
:101D7000FFF7CCFCFFF7A4FB01E000F001F8FCE763
:101D800070B500BFFFF7C0FB04461128FAD04848E1
:101D90000068012801D1FFF725FD002044490860B3
:101DA0000A2C01DA012500E002250A2C02DD0120BF
:101DB00040490860012D02D0022D77D125E0012095
:101DC0003D4908603D49085DFFF7EAFC3C48006872
:101DD00048B93C48006800EB800004EB40003949FA
:101DE0000860FFF7CDFF3648006868B136480068E4
:101DF000012809D03548006800EB800004EB400062
:101E000032490860FFF7BCFF50E00A2C03D10120E3
:101E10002D49086046E00B2C0FD1012028490860AD
:101E20002548006860BB2348006801283AD1284A49
:101E300001210846FFF79EFC34E00C2C0FD1022054
:101E40001F4908601C480068D0B91A48006801287A
:101E500028D11F4A01210846FFF78CFC22E00D2CF7
:101E60000FD10320164908601348006840B9114893
:101E70000068012816D1164A01210846FFF77AFCAE
:101E800010E00E2C0ED104200D4908600A480068AD
:101E900040B908480068012804D10D4A01210846CC
:101EA000FFF768FC2046FFF7CBFD00BF00BF70BD09
:101EB0002C00002034000020300000200000002012
:101EC0002000002018000020240000201C0000201A
:101ED0001000002010B500290AD00878002807D08B
:101EE00005487844FEF7B0FD002801D0002010BD61
:101EF0000248784410BD0000AE060000A6060000AF
:101F00000808A0F500114FEA3101704743004FEA7D
:101F1000D30C4FEA3C0C43401FBF40070CF160510B
:101F200013F0FE4F70471CF0006F03D100200CF03F
:101F3000004170470CF0004343EA507010B540EA8E
:101F4000CC0000F008FA00BF000000924FEA000148
:101F5000FFF7D6BF4FF000414FF00000A1F5002180
:101F60007047000090EA010F48BF81F0004100F186
:101F70004482421A3CBF801A89184FEAD0524FF06F
:101F80007F4C1CEA410FA2EBD15318BF9CEA026FB1
:101F900000F03B804FF0004C4CEA00204CEA01215D
:101FA00021FA03FC10EB0C0C1ED202F1FF325FEAA7
:101FB0001C2040EBC25038BF70471CF07F0F4FEA27
:101FC000400C18BFBCF17F4F38BF7047C3F12003EE
:101FD000994008BF20F00100BCF17F4F38BF704727
:101FE000A0F1C04000F0FDB94FEA3C00000A40EB10
:101FF000C25028BF1CF0FF0F4FEA400CE6D018BFBC
:10200000BCF17F4F38BF7047EAE79CEA026F05D00A
:1020100010EA5C0F08BF00F00040704710B500F0F8
:102020009AF900BF64FBBE3E4FF47F0C1CEAD0124D
:102030001EBF1CEAD11392EA0C0F93EA0C0F00F0BA
:10204000858090EA010F48BF42F4807240F4000C92
:1020500041F400002CF07F4120F07F4000B5814228
:10206000A2EB03020FF2081CACEB504EC0F10000D3
:102070009EF800E04FEA4E0E00FB0EFC38BF490010
:102080004FEA2C1C02F5FA020CFB0EF34FEACE1EAF
:102090004FEA112C4FEAC1210EEB635E42EB224264
:1020A0000EFB0CFC4FEA1C5300FB03114FEA112CF2
:1020B0004FEA01310EFB0CFC4FEADC4C00FB0C112B
:1020C000C14228BF09184CEB03335DF804EB10EB59
:1020D000410143EBC250B2F57C0F38BF704729D5A0
:1020E00012F0F00F1CBF00F1C04000F0004070473C
:1020F000008182838485868788898B8C8D8E8F91E1
:102100009293959697999A9C9D9FA0A2A3A5A7A804
:10211000AAACAEB0B2B3B5B7B9BCBEC0C2C5C7C930
:10212000CCCED1D4D7D9DCDFE2E6E9ECF0F3F7FA94
:10213000FE0000004FEA400C0CF1807CBCF17E4FA9
:1021400028BF7047B0F1C04000F04BB990EA010FD2
:102150000CEAD11348BF42F48072624538BF634530
:1021600007D213F47F0F16D080EA010000F0004080
:10217000704710B500F0EFF8097EFC3E00F005B89E
:1021800080EA010000F00040704780EA010000F0A2
:10219000004000F026B912F47F0F04BF02487047D8
:1021A00080EA010000F01DB90000C07F41000B0E65
:1021B000D3F19E0208D950F400034FEA032323FA17
:1021C00002F048BF4042704710B500F0C4F800BFAD
:1021D00049922480002070476FF0004282EA20007C
:1021E00070470000C10DD1F19E0206DB4FEA0023CB
:1021F00043F0004323FA02F07047004207D54FEA4C
:102200004001B1F1FE4F02D24FF00000704710B50F
:1022100000F0A1F849922480002070476FEA200066
:102220007047000010F0004148BF4042B0FA80F310
:1022300010FA03F2C3F19D030BD051EAC35101EB35
:102240001220530638BF704700F1010008BF20F08C
:10225000010070474FF47F0C1CEAD0121EBF1CEA2D
:10226000D11392EA0C0F93EA0C0F00F0478090EA2A
:10227000010F48BF42F480724FF0004C4CEA00203E
:102280004CEA012102EB0302A0FB0113A2F50002BC
:10229000002918BF43F001035B0028BF4FEA330356
:1022A00042EB22425FEA132C4CEBC2502EBFBCEB38
:1022B000436FB2F57C0F70474FEA036CBCF1004FDF
:1022C00008BF20F00100B2F57C0F38BF70470BD576
:1022D00082F0FF0212F5803FC8BF704700F1C04096
:1022E000D8BF00F00040704700F5000C5FEA4C0CCE
:1022F00048BF7047B0F1C04000F073B890EA010FDA
:102300000CEAD11348BF42F48072624538BF63457E
:1023100004D280EA010000F00040704710B500F0E0
:102320001AF800BF8900013E00F007B800F009B8B4
:102330005FEA410C5FEA1C6C08D080EA010000F003
:1023400050B85FEA400C5FEA1C6CF6D14FF00040D9
:10235000A0F5800070470EF1020E2EF0030E5EF81D
:10236000044B244204D44FEA4102B2F17F4F11D80A
:102370004FEA4003B3F17F4F0CD80ED14FEAD07C27
:10238000B2F17F4F0CEB4C0C0CF1020C08BF4CEB84
:10239000D17C04E04FF0080C01E04FEAD17C0CEB5B
:1023A0004C0324FA03F404F00704B4F1040C06D23D
:1023B0000EEB840CBDE810404CF0010C6047DFE8E8
:1023C0000CF0070802024FF00040A0F5800010BD9D
:1023D0000846420018BFD2F1807288BF00F000406A
:1023E00010BDFF2141EAD050C005704790EA010FAF
:1023F00048BF81F000413FF5BCAD421A04D882F0DD
:102400000042A0EB020011444FEAD0524FF07F4C43
:102410001CEA410FA2EBD15318BF9CEA026F4AD0CD
:102420004FF0004C4CEA00204CEA012121FA03FC59
:10243000B0EB0C0C0FD412F0FE0F36D05FEA4C005C
:102440001DD5001240EBC25038BF70471CF03F0F43
:1024500018BF70470BE0A2F101025FEA1C2040EBBD
:10246000C25038BF70471CF07F0F18BF7047C3F1D0
:102470002003994014BF401E20F0010070478008DF
:102480004FEA122308BF7047B0FA80FCA2EB0C029F
:10249000CCF1280C60FA0CF093EA122F04BF00EB89
:1024A000C25070474FEAC3707047130A5FEADC10EE
:1024B00008BF7047F6E79CEA026F04D010EA5C0F91
:1024C00008BF0020704710B5FFF745FF40DFF63E1C
:1024D00081F000407047FEF73BB80000024000006A
:1024E000000000A00000000005400000000000C83F
:1024F000000000000C4000000000409C00000000B4
:10250000194000000020BCBE000000003440000064
:10251000BFC91B8E00000004B5400000504BCFD057
:102520006607E2CF010000006C4100003E8251AA24
:10253000DFEEA73401000000D9420000DCB5A0E2C4
:102540003A301F97FFFFFFFFB4450000FD25A0C8EC
:10255000E9A3C14FFFFFFFFFFF3F00000000008025
:1025600000000000FF3F00000000008000000000AD
:10257000AC25000800000020380000006C010008B5
:10258000E4250008380000206006000088010008EB
:102590001C00000043000000F8FFFFFF0C000000DB
:1025A0000E0000000F0000002E000000303132331A
:1025B0003435363738393D2F2A2D2B2E616E730076
:1025C000000000000000000000000000000000000B
:1025D00000000000000000000000000000000000FB
:0425E00000000000F7
:0400000508000131BD
:00000001FF
